{
  "_format": "hh-sol-artifact-1",
  "contractName": "Casino",
  "sourceName": "src/backend/contracts/Casino.sol",
  "abi": [
    {
      "inputs": [
        {
          "internalType": "address",
          "name": "_admc",
          "type": "address"
        }
      ],
      "stateMutability": "nonpayable",
      "type": "constructor"
    },
    {
      "anonymous": false,
      "inputs": [
        {
          "indexed": true,
          "internalType": "address",
          "name": "previousOwner",
          "type": "address"
        },
        {
          "indexed": true,
          "internalType": "address",
          "name": "newOwner",
          "type": "address"
        }
      ],
      "name": "OwnershipTransferred",
      "type": "event"
    },
    {
      "anonymous": false,
      "inputs": [
        {
          "indexed": false,
          "internalType": "uint256",
          "name": "NumberWin",
          "type": "uint256"
        },
        {
          "indexed": false,
          "internalType": "bool",
          "name": "result",
          "type": "bool"
        },
        {
          "indexed": false,
          "internalType": "uint256",
          "name": "tokensEarned",
          "type": "uint256"
        }
      ],
      "name": "RouletteGame",
      "type": "event"
    },
    {
      "inputs": [],
      "name": "ADMC",
      "outputs": [
        {
          "internalType": "contract IERC20",
          "name": "",
          "type": "address"
        }
      ],
      "stateMutability": "view",
      "type": "function"
    },
    {
      "inputs": [],
      "name": "balanceADMCSC",
      "outputs": [
        {
          "internalType": "uint256",
          "name": "",
          "type": "uint256"
        }
      ],
      "stateMutability": "view",
      "type": "function"
    },
    {
      "inputs": [],
      "name": "balanceEthersSC",
      "outputs": [
        {
          "internalType": "uint256",
          "name": "",
          "type": "uint256"
        }
      ],
      "stateMutability": "view",
      "type": "function"
    },
    {
      "inputs": [
        {
          "internalType": "uint256",
          "name": "_numTokens",
          "type": "uint256"
        }
      ],
      "name": "compraTokens",
      "outputs": [],
      "stateMutability": "nonpayable",
      "type": "function"
    },
    {
      "inputs": [
        {
          "internalType": "uint256",
          "name": "_numTokens",
          "type": "uint256"
        }
      ],
      "name": "devolverTokens",
      "outputs": [],
      "stateMutability": "nonpayable",
      "type": "function"
    },
    {
      "inputs": [],
      "name": "getAdress",
      "outputs": [
        {
          "internalType": "address",
          "name": "",
          "type": "address"
        }
      ],
      "stateMutability": "view",
      "type": "function"
    },
    {
      "inputs": [
        {
          "internalType": "uint256",
          "name": "_start",
          "type": "uint256"
        },
        {
          "internalType": "uint256",
          "name": "_end",
          "type": "uint256"
        },
        {
          "internalType": "uint256",
          "name": "_tokensBet",
          "type": "uint256"
        }
      ],
      "name": "jugarRuleta",
      "outputs": [],
      "stateMutability": "nonpayable",
      "type": "function"
    },
    {
      "inputs": [],
      "name": "owner",
      "outputs": [
        {
          "internalType": "address",
          "name": "",
          "type": "address"
        }
      ],
      "stateMutability": "view",
      "type": "function"
    },
    {
      "inputs": [
        {
          "internalType": "uint256",
          "name": "_numTokens",
          "type": "uint256"
        }
      ],
      "name": "precioTokens",
      "outputs": [
        {
          "internalType": "uint256",
          "name": "",
          "type": "uint256"
        }
      ],
      "stateMutability": "pure",
      "type": "function"
    },
    {
      "inputs": [],
      "name": "renounceOwnership",
      "outputs": [],
      "stateMutability": "nonpayable",
      "type": "function"
    },
    {
      "inputs": [
        {
          "internalType": "uint256",
          "name": "_amount",
          "type": "uint256"
        }
      ],
      "name": "retirarADMC",
      "outputs": [],
      "stateMutability": "nonpayable",
      "type": "function"
    },
    {
      "inputs": [
        {
          "internalType": "uint256",
          "name": "_numEther",
          "type": "uint256"
        }
      ],
      "name": "retirarEth",
      "outputs": [],
      "stateMutability": "payable",
      "type": "function"
    },
    {
      "inputs": [],
      "name": "tokenAddress",
      "outputs": [
        {
          "internalType": "address",
          "name": "",
          "type": "address"
        }
      ],
      "stateMutability": "view",
      "type": "function"
    },
    {
      "inputs": [
        {
          "internalType": "address",
          "name": "_of",
          "type": "address"
        }
      ],
      "name": "tokenBalance",
      "outputs": [
        {
          "internalType": "uint256",
          "name": "",
          "type": "uint256"
        }
      ],
      "stateMutability": "view",
      "type": "function"
    },
    {
      "inputs": [
        {
          "internalType": "address",
          "name": "newOwner",
          "type": "address"
        }
      ],
      "name": "transferOwnership",
      "outputs": [],
      "stateMutability": "nonpayable",
      "type": "function"
    },
    {
      "inputs": [
        {
          "internalType": "address",
          "name": "_propietario",
          "type": "address"
        }
      ],
      "name": "tuHistorial",
      "outputs": [
        {
          "components": [
            {
              "internalType": "uint256",
              "name": "tokensBet",
              "type": "uint256"
            },
            {
              "internalType": "uint256",
              "name": "tokensEarned",
              "type": "uint256"
            },
            {
              "internalType": "string",
              "name": "game",
              "type": "string"
            }
          ],
          "internalType": "struct Casino.Bet[]",
          "name": "",
          "type": "tuple[]"
        }
      ],
      "stateMutability": "view",
      "type": "function"
    }
  ],
  "bytecode": "0x60806040523480156200001157600080fd5b5060405162003f2238038062003f2283398181016040528101906200003791906200033f565b620000576200004b6200023760201b60201c565b6200023f60201b60201c565b604051620000659062000303565b620000709062000413565b604051809103906000f0801580156200008d573d6000803e3d6000fd5b50600160006101000a81548173ffffffffffffffffffffffffffffffffffffffff021916908373ffffffffffffffffffffffffffffffffffffffff160217905550600160009054906101000a900473ffffffffffffffffffffffffffffffffffffffff16600260006101000a81548173ffffffffffffffffffffffffffffffffffffffff021916908373ffffffffffffffffffffffffffffffffffffffff160217905550600160009054906101000a900473ffffffffffffffffffffffffffffffffffffffff1673ffffffffffffffffffffffffffffffffffffffff1663a0712d6869d3c21bcecceda10000006040518263ffffffff1660e01b8152600401620001989190620003f6565b602060405180830381600087803b158015620001b357600080fd5b505af1158015620001c8573d6000803e3d6000fd5b505050506040513d601f19601f82011682018060405250810190620001ee91906200036b565b5080600360006101000a81548173ffffffffffffffffffffffffffffffffffffffff021916908373ffffffffffffffffffffffffffffffffffffffff160217905550506200053f565b600033905090565b60008060009054906101000a900473ffffffffffffffffffffffffffffffffffffffff169050816000806101000a81548173ffffffffffffffffffffffffffffffffffffffff021916908373ffffffffffffffffffffffffffffffffffffffff1602179055508173ffffffffffffffffffffffffffffffffffffffff168173ffffffffffffffffffffffffffffffffffffffff167f8be0079c531659141344cd1fd0a4f28419497f9722a3daafe3b4186f6b6457e060405160405180910390a35050565b6119fa806200252883390190565b60008151905062000322816200050b565b92915050565b600081519050620003398162000525565b92915050565b6000602082840312156200035257600080fd5b6000620003628482850162000311565b91505092915050565b6000602082840312156200037e57600080fd5b60006200038e8482850162000328565b91505092915050565b620003a281620004a5565b82525050565b6000620003b76006836200044a565b9150620003c482620004b9565b602082019050919050565b6000620003de6003836200044a565b9150620003eb82620004e2565b602082019050919050565b60006020820190506200040d600083018462000397565b92915050565b600060408201905081810360008301526200042e81620003a8565b905081810360208301526200044381620003cf565b9050919050565b600082825260208201905092915050565b600062000468826200047b565b9050919050565b60008115159050919050565b600073ffffffffffffffffffffffffffffffffffffffff82169050919050565b6000819050919050565b6000620004b2826200049b565b9050919050565b7f436173696e6f0000000000000000000000000000000000000000000000000000600082015250565b7f4341530000000000000000000000000000000000000000000000000000000000600082015250565b62000516816200045b565b81146200052257600080fd5b50565b62000530816200046f565b81146200053c57600080fd5b50565b611fd9806200054f6000396000f3fe6080604052600436106100f35760003560e01c80639d76ea581161008a578063e018eb2611610059578063e018eb26146102f7578063eedc966a14610322578063f2fde38b1461035f578063f580239414610388576100f3565b80639d76ea581461023b578063b934c38414610266578063c29dd7c914610291578063df540967146102ba576100f3565b80635f375c6c116100c65780635f375c6c146101915780636b37d362146101ce578063715018a6146101f95780638da5cb5b14610210576100f3565b806321a10444146100f85780632713cdd9146101215780632e95161c1461014c5780633897b0bc14610175575b600080fd5b34801561010457600080fd5b5061011f600480360381019061011a919061174d565b6103b1565b005b34801561012d57600080fd5b5061013661084e565b6040516101439190611b32565b60405180910390f35b34801561015857600080fd5b50610173600480360381019061016e91906116fb565b610900565b005b61018f600480360381019061018a91906116fb565b610aeb565b005b34801561019d57600080fd5b506101b860048036038101906101b391906116fb565b610bd1565b6040516101c59190611b32565b60405180910390f35b3480156101da57600080fd5b506101e3610bed565b6040516101f091906119da565b60405180910390f35b34801561020557600080fd5b5061020e610c17565b005b34801561021c57600080fd5b50610225610c2b565b60405161023291906119da565b60405180910390f35b34801561024757600080fd5b50610250610c54565b60405161025d91906119da565b60405180910390f35b34801561027257600080fd5b5061027b610c7a565b6040516102889190611b32565b60405180910390f35b34801561029d57600080fd5b506102b860048036038101906102b391906116fb565b610c95565b005b3480156102c657600080fd5b506102e160048036038101906102dc91906116a9565b610fb5565b6040516102ee9190611a55565b60405180910390f35b34801561030357600080fd5b5061030c6110f9565b6040516103199190611a77565b60405180910390f35b34801561032e57600080fd5b50610349600480360381019061034491906116a9565b61111f565b6040516103569190611b32565b60405180910390f35b34801561036b57600080fd5b50610386600480360381019061038191906116a9565b6111d3565b005b34801561039457600080fd5b506103af60048036038101906103aa91906116fb565b611257565b005b600160009054906101000a900473ffffffffffffffffffffffffffffffffffffffff1673ffffffffffffffffffffffffffffffffffffffff166370a08231336040518263ffffffff1660e01b815260040161040c91906119da565b60206040518083038186803b15801561042457600080fd5b505afa158015610438573d6000803e3d6000fd5b505050506040513d601f19601f8201168201806040525081019061045c9190611724565b81111561046857600080fd5b6000811161047557600080fd5b6000600e4260405160200161048a91906119bf565b6040516020818303038152906040528051906020012060001c6104ad9190611d50565b9050600080600160009054906101000a900473ffffffffffffffffffffffffffffffffffffffff1673ffffffffffffffffffffffffffffffffffffffff166323b872dd3330876040518463ffffffff1660e01b8152600401610511939291906119f5565b602060405180830381600087803b15801561052b57600080fd5b505af115801561053f573d6000803e3d6000fd5b505050506040513d601f19601f8201168201806040525081019061056391906116d2565b508483111580156105745750858310155b156107ca5760019050600083141561059a57600e846105939190611c1b565b91506105aa565b6002846105a79190611c1b565b91505b81600160009054906101000a900473ffffffffffffffffffffffffffffffffffffffff1673ffffffffffffffffffffffffffffffffffffffff166370a08231306040518263ffffffff1660e01b815260040161060691906119da565b60206040518083038186803b15801561061e57600080fd5b505afa158015610632573d6000803e3d6000fd5b505050506040513d601f19601f820116820180604052508101906106569190611724565b101561071957600160009054906101000a900473ffffffffffffffffffffffffffffffffffffffff1673ffffffffffffffffffffffffffffffffffffffff1663a0712d68620186a0846106a99190611c1b565b6040518263ffffffff1660e01b81526004016106c59190611b32565b602060405180830381600087803b1580156106df57600080fd5b505af11580156106f3573d6000803e3d6000fd5b505050506040513d601f19601f8201168201806040525081019061071791906116d2565b505b600160009054906101000a900473ffffffffffffffffffffffffffffffffffffffff1673ffffffffffffffffffffffffffffffffffffffff1663a9059cbb33846040518363ffffffff1660e01b8152600401610776929190611a2c565b602060405180830381600087803b15801561079057600080fd5b505af11580156107a4573d6000803e3d6000fd5b505050506040513d601f19601f820116820180604052508101906107c891906116d2565b505b61080b6040518060400160405280600781526020017f526f756c657465000000000000000000000000000000000000000000000000008152508584336113a6565b7fd25d6b7f2fbc40564b21f40e1d506ff3d5276071da39d3def6b88f6ee8a3965983828460405161083e93929190611b4d565b60405180910390a1505050505050565b6000600360009054906101000a900473ffffffffffffffffffffffffffffffffffffffff1673ffffffffffffffffffffffffffffffffffffffff166370a08231306040518263ffffffff1660e01b81526004016108ab91906119da565b60206040518083038186803b1580156108c357600080fd5b505afa1580156108d7573d6000803e3d6000fd5b505050506040513d601f19601f820116820180604052508101906108fb9190611724565b905090565b60008111610943576040517f08c379a000000000000000000000000000000000000000000000000000000000815260040161093a90611ab2565b60405180910390fd5b600160009054906101000a900473ffffffffffffffffffffffffffffffffffffffff1673ffffffffffffffffffffffffffffffffffffffff166370a08231336040518263ffffffff1660e01b815260040161099e91906119da565b60206040518083038186803b1580156109b657600080fd5b505afa1580156109ca573d6000803e3d6000fd5b505050506040513d601f19601f820116820180604052508101906109ee9190611724565b811115610a30576040517f08c379a0000000000000000000000000000000000000000000000000000000008152600401610a2790611b12565b60405180910390fd5b600360009054906101000a900473ffffffffffffffffffffffffffffffffffffffff1673ffffffffffffffffffffffffffffffffffffffff1663a9059cbb33610a7884610bd1565b6040518363ffffffff1660e01b8152600401610a95929190611a2c565b602060405180830381600087803b158015610aaf57600080fd5b505af1158015610ac3573d6000803e3d6000fd5b505050506040513d601f19601f82011682018060405250810190610ae791906116d2565b5050565b610af3611468565b60008111610b36576040517f08c379a0000000000000000000000000000000000000000000000000000000008152600401610b2d90611ab2565b60405180910390fd5b610b3e610c7a565b811115610b80576040517f08c379a0000000000000000000000000000000000000000000000000000000008152600401610b7790611b12565b60405180910390fd5b610b88610c2b565b73ffffffffffffffffffffffffffffffffffffffff166108fc829081150290604051600060405180830381858888f19350505050158015610bcd573d6000803e3d6000fd5b5050565b600066038d7ea4c6800082610be69190611c1b565b9050919050565b6000600160009054906101000a900473ffffffffffffffffffffffffffffffffffffffff16905090565b610c1f611468565b610c2960006114e6565b565b60008060009054906101000a900473ffffffffffffffffffffffffffffffffffffffff16905090565b600260009054906101000a900473ffffffffffffffffffffffffffffffffffffffff1681565b6000670de0b6b3a764000047610c909190611bea565b905090565b6000610ca082610bd1565b9050600360009054906101000a900473ffffffffffffffffffffffffffffffffffffffff1673ffffffffffffffffffffffffffffffffffffffff166323b872dd3330846040518463ffffffff1660e01b8152600401610d01939291906119f5565b602060405180830381600087803b158015610d1b57600080fd5b505af1158015610d2f573d6000803e3d6000fd5b505050506040513d601f19601f82011682018060405250810190610d5391906116d2565b610d92576040517f08c379a0000000000000000000000000000000000000000000000000000000008152600401610d8990611af2565b60405180910390fd5b81600160009054906101000a900473ffffffffffffffffffffffffffffffffffffffff1673ffffffffffffffffffffffffffffffffffffffff166370a08231306040518263ffffffff1660e01b8152600401610dee91906119da565b60206040518083038186803b158015610e0657600080fd5b505afa158015610e1a573d6000803e3d6000fd5b505050506040513d601f19601f82011682018060405250810190610e3e9190611724565b1015610f0157600160009054906101000a900473ffffffffffffffffffffffffffffffffffffffff1673ffffffffffffffffffffffffffffffffffffffff1663a0712d68620186a084610e919190611c1b565b6040518263ffffffff1660e01b8152600401610ead9190611b32565b602060405180830381600087803b158015610ec757600080fd5b505af1158015610edb573d6000803e3d6000fd5b505050506040513d601f19601f82011682018060405250810190610eff91906116d2565b505b600160009054906101000a900473ffffffffffffffffffffffffffffffffffffffff1673ffffffffffffffffffffffffffffffffffffffff1663a9059cbb33846040518363ffffffff1660e01b8152600401610f5e929190611a2c565b602060405180830381600087803b158015610f7857600080fd5b505af1158015610f8c573d6000803e3d6000fd5b505050506040513d601f19601f82011682018060405250810190610fb091906116d2565b505050565b6060600460008373ffffffffffffffffffffffffffffffffffffffff1673ffffffffffffffffffffffffffffffffffffffff168152602001908152602001600020805480602002602001604051908101604052809291908181526020016000905b828210156110ee5783829060005260206000209060030201604051806060016040529081600082015481526020016001820154815260200160028201805461105d90611d14565b80601f016020809104026020016040519081016040528092919081815260200182805461108990611d14565b80156110d65780601f106110ab576101008083540402835291602001916110d6565b820191906000526020600020905b8154815290600101906020018083116110b957829003601f168201915b50505050508152505081526020019060010190611016565b505050509050919050565b600360009054906101000a900473ffffffffffffffffffffffffffffffffffffffff1681565b6000600160009054906101000a900473ffffffffffffffffffffffffffffffffffffffff1673ffffffffffffffffffffffffffffffffffffffff166370a08231836040518263ffffffff1660e01b815260040161117c91906119da565b60206040518083038186803b15801561119457600080fd5b505afa1580156111a8573d6000803e3d6000fd5b505050506040513d601f19601f820116820180604052508101906111cc9190611724565b9050919050565b6111db611468565b600073ffffffffffffffffffffffffffffffffffffffff168173ffffffffffffffffffffffffffffffffffffffff16141561124b576040517f08c379a000000000000000000000000000000000000000000000000000000000815260040161124290611a92565b60405180910390fd5b611254816114e6565b50565b61125f611468565b600081116112a2576040517f08c379a000000000000000000000000000000000000000000000000000000000815260040161129990611ab2565b60405180910390fd5b6112aa61084e565b8111156112ec576040517f08c379a00000000000000000000000000000000000000000000000000000000081526004016112e390611b12565b60405180910390fd5b600360009054906101000a900473ffffffffffffffffffffffffffffffffffffffff1673ffffffffffffffffffffffffffffffffffffffff1663a9059cbb611332610c2b565b836040518363ffffffff1660e01b8152600401611350929190611a2c565b602060405180830381600087803b15801561136a57600080fd5b505af115801561137e573d6000803e3d6000fd5b505050506040513d601f19601f820116820180604052508101906113a291906116d2565b5050565b60006040518060600160405280858152602001848152602001868152509050600460008373ffffffffffffffffffffffffffffffffffffffff1673ffffffffffffffffffffffffffffffffffffffff1681526020019081526020016000208190806001815401808255809150506001900390600052602060002090600302016000909190919091506000820151816000015560208201518160010155604082015181600201908051906020019061145e9291906115b2565b5050505050505050565b6114706115aa565b73ffffffffffffffffffffffffffffffffffffffff1661148e610c2b565b73ffffffffffffffffffffffffffffffffffffffff16146114e4576040517f08c379a00000000000000000000000000000000000000000000000000000000081526004016114db90611ad2565b60405180910390fd5b565b60008060009054906101000a900473ffffffffffffffffffffffffffffffffffffffff169050816000806101000a81548173ffffffffffffffffffffffffffffffffffffffff021916908373ffffffffffffffffffffffffffffffffffffffff1602179055508173ffffffffffffffffffffffffffffffffffffffff168173ffffffffffffffffffffffffffffffffffffffff167f8be0079c531659141344cd1fd0a4f28419497f9722a3daafe3b4186f6b6457e060405160405180910390a35050565b600033905090565b8280546115be90611d14565b90600052602060002090601f0160209004810192826115e05760008555611627565b82601f106115f957805160ff1916838001178555611627565b82800160010185558215611627579182015b8281111561162657825182559160200191906001019061160b565b5b5090506116349190611638565b5090565b5b80821115611651576000816000905550600101611639565b5090565b60008135905061166481611f5e565b92915050565b60008151905061167981611f75565b92915050565b60008135905061168e81611f8c565b92915050565b6000815190506116a381611f8c565b92915050565b6000602082840312156116bb57600080fd5b60006116c984828501611655565b91505092915050565b6000602082840312156116e457600080fd5b60006116f28482850161166a565b91505092915050565b60006020828403121561170d57600080fd5b600061171b8482850161167f565b91505092915050565b60006020828403121561173657600080fd5b600061174484828501611694565b91505092915050565b60008060006060848603121561176257600080fd5b60006117708682870161167f565b93505060206117818682870161167f565b92505060406117928682870161167f565b9150509250925092565b60006117a8838361193a565b905092915050565b6117b981611c75565b82525050565b60006117ca82611b94565b6117d48185611bb7565b9350836020820285016117e685611b84565b8060005b858110156118225784840389528151611803858261179c565b945061180e83611baa565b925060208a019950506001810190506117ea565b50829750879550505050505092915050565b61183d81611c87565b82525050565b61184c81611cbd565b82525050565b600061185d82611b9f565b6118678185611bc8565b9350611877818560208601611ce1565b61188081611e0e565b840191505092915050565b6000611898602683611bd9565b91506118a382611e1f565b604082019050919050565b60006118bb603083611bd9565b91506118c682611e6e565b604082019050919050565b60006118de602083611bd9565b91506118e982611ebd565b602082019050919050565b6000611901601383611bd9565b915061190c82611ee6565b602082019050919050565b6000611924602883611bd9565b915061192f82611f0f565b604082019050919050565b6000606083016000830151611952600086018261198a565b506020830151611965602086018261198a565b506040830151848203604086015261197d8282611852565b9150508091505092915050565b61199381611cb3565b82525050565b6119a281611cb3565b82525050565b6119b96119b482611cb3565b611d46565b82525050565b60006119cb82846119a8565b60208201915081905092915050565b60006020820190506119ef60008301846117b0565b92915050565b6000606082019050611a0a60008301866117b0565b611a1760208301856117b0565b611a246040830184611999565b949350505050565b6000604082019050611a4160008301856117b0565b611a4e6020830184611999565b9392505050565b60006020820190508181036000830152611a6f81846117bf565b905092915050565b6000602082019050611a8c6000830184611843565b92915050565b60006020820190508181036000830152611aab8161188b565b9050919050565b60006020820190508181036000830152611acb816118ae565b9050919050565b60006020820190508181036000830152611aeb816118d1565b9050919050565b60006020820190508181036000830152611b0b816118f4565b9050919050565b60006020820190508181036000830152611b2b81611917565b9050919050565b6000602082019050611b476000830184611999565b92915050565b6000606082019050611b626000830186611999565b611b6f6020830185611834565b611b7c6040830184611999565b949350505050565b6000819050602082019050919050565b600081519050919050565b600081519050919050565b6000602082019050919050565b600082825260208201905092915050565b600082825260208201905092915050565b600082825260208201905092915050565b6000611bf582611cb3565b9150611c0083611cb3565b925082611c1057611c0f611db0565b5b828204905092915050565b6000611c2682611cb3565b9150611c3183611cb3565b9250817fffffffffffffffffffffffffffffffffffffffffffffffffffffffffffffffff0483118215151615611c6a57611c69611d81565b5b828202905092915050565b6000611c8082611c93565b9050919050565b60008115159050919050565b600073ffffffffffffffffffffffffffffffffffffffff82169050919050565b6000819050919050565b6000611cc882611ccf565b9050919050565b6000611cda82611c93565b9050919050565b60005b83811015611cff578082015181840152602081019050611ce4565b83811115611d0e576000848401525b50505050565b60006002820490506001821680611d2c57607f821691505b60208210811415611d4057611d3f611ddf565b5b50919050565b6000819050919050565b6000611d5b82611cb3565b9150611d6683611cb3565b925082611d7657611d75611db0565b5b828206905092915050565b7f4e487b7100000000000000000000000000000000000000000000000000000000600052601160045260246000fd5b7f4e487b7100000000000000000000000000000000000000000000000000000000600052601260045260246000fd5b7f4e487b7100000000000000000000000000000000000000000000000000000000600052602260045260246000fd5b6000601f19601f8301169050919050565b7f4f776e61626c653a206e6577206f776e657220697320746865207a65726f206160008201527f6464726573730000000000000000000000000000000000000000000000000000602082015250565b7f4e6563657369746173206465766f6c76657220756e206e756d65726f2064652060008201527f746f6b656e73206d61796f722061203000000000000000000000000000000000602082015250565b7f4f776e61626c653a2063616c6c6572206973206e6f7420746865206f776e6572600082015250565b7f496e73756666696369656e7420616d6f756e7400000000000000000000000000600082015250565b7f4e6f207469656e6573206c6f7320746f6b656e7320717565206465736561732060008201527f6465766f6c766572000000000000000000000000000000000000000000000000602082015250565b611f6781611c75565b8114611f7257600080fd5b50565b611f7e81611c87565b8114611f8957600080fd5b50565b611f9581611cb3565b8114611fa057600080fd5b5056fea26469706673582212205fd7b46b3911f3cfc40e7db8df25bf72db027575cf1363c754bb34ce76e28e4a64736f6c6343000804003360806040523480156200001157600080fd5b50604051620019fa380380620019fa8339818101604052810190620000379190620001d4565b81600390805190602001906200004f929190620000b2565b50806004908051906020019062000068929190620000b2565b5033600560006101000a81548173ffffffffffffffffffffffffffffffffffffffff021916908373ffffffffffffffffffffffffffffffffffffffff1602179055505050620003b7565b828054620000c090620002dc565b90600052602060002090601f016020900481019282620000e4576000855562000130565b82601f10620000ff57805160ff191683800117855562000130565b8280016001018555821562000130579182015b828111156200012f57825182559160200191906001019062000112565b5b5090506200013f919062000143565b5090565b5b808211156200015e57600081600090555060010162000144565b5090565b600062000179620001738462000270565b62000247565b9050828152602081018484840111156200019257600080fd5b6200019f848285620002a6565b509392505050565b600082601f830112620001b957600080fd5b8151620001cb84826020860162000162565b91505092915050565b60008060408385031215620001e857600080fd5b600083015167ffffffffffffffff8111156200020357600080fd5b6200021185828601620001a7565b925050602083015167ffffffffffffffff8111156200022f57600080fd5b6200023d85828601620001a7565b9150509250929050565b60006200025362000266565b905062000261828262000312565b919050565b6000604051905090565b600067ffffffffffffffff8211156200028e576200028d62000377565b5b6200029982620003a6565b9050602081019050919050565b60005b83811015620002c6578082015181840152602081019050620002a9565b83811115620002d6576000848401525b50505050565b60006002820490506001821680620002f557607f821691505b602082108114156200030c576200030b62000348565b5b50919050565b6200031d82620003a6565b810181811067ffffffffffffffff821117156200033f576200033e62000377565b5b80604052505050565b7f4e487b7100000000000000000000000000000000000000000000000000000000600052602260045260246000fd5b7f4e487b7100000000000000000000000000000000000000000000000000000000600052604160045260246000fd5b6000601f19601f8301169050919050565b61163380620003c76000396000f3fe608060405234801561001057600080fd5b50600436106100cf5760003560e01c806370a082311161008c578063a0712d6811610066578063a0712d681461022a578063a457c2d71461025a578063a9059cbb1461028a578063dd62ed3e146102ba576100cf565b806370a08231146101be5780638da5cb5b146101ee57806395d89b411461020c576100cf565b806306fdde03146100d4578063095ea7b3146100f257806318160ddd1461012257806323b872dd14610140578063313ce56714610170578063395093511461018e575b600080fd5b6100dc6102ea565b6040516100e99190611041565b60405180910390f35b61010c60048036038101906101079190610df6565b61037c565b6040516101199190611026565b60405180910390f35b61012a61039f565b6040516101379190611183565b60405180910390f35b61015a60048036038101906101559190610da7565b6103a9565b6040516101679190611026565b60405180910390f35b6101786103d8565b604051610185919061119e565b60405180910390f35b6101a860048036038101906101a39190610df6565b6103e1565b6040516101b59190611026565b60405180910390f35b6101d860048036038101906101d39190610d42565b610418565b6040516101e59190611183565b60405180910390f35b6101f6610460565b604051610203919061100b565b60405180910390f35b610214610486565b6040516102219190611041565b60405180910390f35b610244600480360381019061023f9190610e32565b610518565b6040516102519190611026565b60405180910390f35b610274600480360381019061026f9190610df6565b6105bf565b6040516102819190611026565b60405180910390f35b6102a4600480360381019061029f9190610df6565b610636565b6040516102b19190611026565b60405180910390f35b6102d460048036038101906102cf9190610d6b565b610659565b6040516102e19190611183565b60405180910390f35b6060600380546102f9906112b3565b80601f0160208091040260200160405190810160405280929190818152602001828054610325906112b3565b80156103725780601f1061034757610100808354040283529160200191610372565b820191906000526020600020905b81548152906001019060200180831161035557829003601f168201915b5050505050905090565b6000806103876106e0565b90506103948185856106e8565b600191505092915050565b6000600254905090565b6000806103b46106e0565b90506103c18582856108b3565b6103cc85858561093f565b60019150509392505050565b60006012905090565b6000806103ec6106e0565b905061040d8185856103fe8589610659565b61040891906111d5565b6106e8565b600191505092915050565b60008060008373ffffffffffffffffffffffffffffffffffffffff1673ffffffffffffffffffffffffffffffffffffffff168152602001908152602001600020549050919050565b600560009054906101000a900473ffffffffffffffffffffffffffffffffffffffff1681565b606060048054610495906112b3565b80601f01602080910402602001604051908101604052809291908181526020018280546104c1906112b3565b801561050e5780601f106104e35761010080835404028352916020019161050e565b820191906000526020600020905b8154815290600101906020018083116104f157829003601f168201915b5050505050905090565b600033600560009054906101000a900473ffffffffffffffffffffffffffffffffffffffff1673ffffffffffffffffffffffffffffffffffffffff168173ffffffffffffffffffffffffffffffffffffffff16146105ab576040517f08c379a00000000000000000000000000000000000000000000000000000000081526004016105a2906110e3565b60405180910390fd5b6105b53384610bb7565b6001915050919050565b6000806105ca6106e0565b905060006105d88286610659565b90508381101561061d576040517f08c379a000000000000000000000000000000000000000000000000000000000815260040161061490611143565b60405180910390fd5b61062a82868684036106e8565b60019250505092915050565b6000806106416106e0565b905061064e81858561093f565b600191505092915050565b6000600160008473ffffffffffffffffffffffffffffffffffffffff1673ffffffffffffffffffffffffffffffffffffffff16815260200190815260200160002060008373ffffffffffffffffffffffffffffffffffffffff1673ffffffffffffffffffffffffffffffffffffffff16815260200190815260200160002054905092915050565b600033905090565b600073ffffffffffffffffffffffffffffffffffffffff168373ffffffffffffffffffffffffffffffffffffffff161415610758576040517f08c379a000000000000000000000000000000000000000000000000000000000815260040161074f90611123565b60405180910390fd5b600073ffffffffffffffffffffffffffffffffffffffff168273ffffffffffffffffffffffffffffffffffffffff1614156107c8576040517f08c379a00000000000000000000000000000000000000000000000000000000081526004016107bf90611083565b60405180910390fd5b80600160008573ffffffffffffffffffffffffffffffffffffffff1673ffffffffffffffffffffffffffffffffffffffff16815260200190815260200160002060008473ffffffffffffffffffffffffffffffffffffffff1673ffffffffffffffffffffffffffffffffffffffff168152602001908152602001600020819055508173ffffffffffffffffffffffffffffffffffffffff168373ffffffffffffffffffffffffffffffffffffffff167f8c5be1e5ebec7d5bd14f71427d1e84f3dd0314c0f7b2291e5b200ac8c7c3b925836040516108a69190611183565b60405180910390a3505050565b60006108bf8484610659565b90507fffffffffffffffffffffffffffffffffffffffffffffffffffffffffffffffff8114610939578181101561092b576040517f08c379a0000000000000000000000000000000000000000000000000000000008152600401610922906110a3565b60405180910390fd5b61093884848484036106e8565b5b50505050565b600073ffffffffffffffffffffffffffffffffffffffff168373ffffffffffffffffffffffffffffffffffffffff1614156109af576040517f08c379a00000000000000000000000000000000000000000000000000000000081526004016109a690611103565b60405180910390fd5b600073ffffffffffffffffffffffffffffffffffffffff168273ffffffffffffffffffffffffffffffffffffffff161415610a1f576040517f08c379a0000000000000000000000000000000000000000000000000000000008152600401610a1690611063565b60405180910390fd5b610a2a838383610d0e565b60008060008573ffffffffffffffffffffffffffffffffffffffff1673ffffffffffffffffffffffffffffffffffffffff16815260200190815260200160002054905081811015610ab0576040517f08c379a0000000000000000000000000000000000000000000000000000000008152600401610aa7906110c3565b60405180910390fd5b8181036000808673ffffffffffffffffffffffffffffffffffffffff1673ffffffffffffffffffffffffffffffffffffffff16815260200190815260200160002081905550816000808573ffffffffffffffffffffffffffffffffffffffff1673ffffffffffffffffffffffffffffffffffffffff168152602001908152602001600020600082825401925050819055508273ffffffffffffffffffffffffffffffffffffffff168473ffffffffffffffffffffffffffffffffffffffff167fddf252ad1be2c89b69c2b068fc378daa952ba7f163c4a11628f55a4df523b3ef84604051610b9e9190611183565b60405180910390a3610bb1848484610d13565b50505050565b600073ffffffffffffffffffffffffffffffffffffffff168273ffffffffffffffffffffffffffffffffffffffff161415610c27576040517f08c379a0000000000000000000000000000000000000000000000000000000008152600401610c1e90611163565b60405180910390fd5b610c3360008383610d0e565b8060026000828254610c4591906111d5565b92505081905550806000808473ffffffffffffffffffffffffffffffffffffffff1673ffffffffffffffffffffffffffffffffffffffff168152602001908152602001600020600082825401925050819055508173ffffffffffffffffffffffffffffffffffffffff16600073ffffffffffffffffffffffffffffffffffffffff167fddf252ad1be2c89b69c2b068fc378daa952ba7f163c4a11628f55a4df523b3ef83604051610cf69190611183565b60405180910390a3610d0a60008383610d13565b5050565b505050565b505050565b600081359050610d27816115cf565b92915050565b600081359050610d3c816115e6565b92915050565b600060208284031215610d5457600080fd5b6000610d6284828501610d18565b91505092915050565b60008060408385031215610d7e57600080fd5b6000610d8c85828601610d18565b9250506020610d9d85828601610d18565b9150509250929050565b600080600060608486031215610dbc57600080fd5b6000610dca86828701610d18565b9350506020610ddb86828701610d18565b9250506040610dec86828701610d2d565b9150509250925092565b60008060408385031215610e0957600080fd5b6000610e1785828601610d18565b9250506020610e2885828601610d2d565b9150509250929050565b600060208284031215610e4457600080fd5b6000610e5284828501610d2d565b91505092915050565b610e648161122b565b82525050565b610e738161123d565b82525050565b6000610e84826111b9565b610e8e81856111c4565b9350610e9e818560208601611280565b610ea781611343565b840191505092915050565b6000610ebf6023836111c4565b9150610eca82611354565b604082019050919050565b6000610ee26022836111c4565b9150610eed826113a3565b604082019050919050565b6000610f05601d836111c4565b9150610f10826113f2565b602082019050919050565b6000610f286026836111c4565b9150610f338261141b565b604082019050919050565b6000610f4b602e836111c4565b9150610f568261146a565b604082019050919050565b6000610f6e6025836111c4565b9150610f79826114b9565b604082019050919050565b6000610f916024836111c4565b9150610f9c82611508565b604082019050919050565b6000610fb46025836111c4565b9150610fbf82611557565b604082019050919050565b6000610fd7601f836111c4565b9150610fe2826115a6565b602082019050919050565b610ff681611269565b82525050565b61100581611273565b82525050565b60006020820190506110206000830184610e5b565b92915050565b600060208201905061103b6000830184610e6a565b92915050565b6000602082019050818103600083015261105b8184610e79565b905092915050565b6000602082019050818103600083015261107c81610eb2565b9050919050565b6000602082019050818103600083015261109c81610ed5565b9050919050565b600060208201905081810360008301526110bc81610ef8565b9050919050565b600060208201905081810360008301526110dc81610f1b565b9050919050565b600060208201905081810360008301526110fc81610f3e565b9050919050565b6000602082019050818103600083015261111c81610f61565b9050919050565b6000602082019050818103600083015261113c81610f84565b9050919050565b6000602082019050818103600083015261115c81610fa7565b9050919050565b6000602082019050818103600083015261117c81610fca565b9050919050565b60006020820190506111986000830184610fed565b92915050565b60006020820190506111b36000830184610ffc565b92915050565b600081519050919050565b600082825260208201905092915050565b60006111e082611269565b91506111eb83611269565b9250827fffffffffffffffffffffffffffffffffffffffffffffffffffffffffffffffff038211156112205761121f6112e5565b5b828201905092915050565b600061123682611249565b9050919050565b60008115159050919050565b600073ffffffffffffffffffffffffffffffffffffffff82169050919050565b6000819050919050565b600060ff82169050919050565b60005b8381101561129e578082015181840152602081019050611283565b838111156112ad576000848401525b50505050565b600060028204905060018216806112cb57607f821691505b602082108114156112df576112de611314565b5b50919050565b7f4e487b7100000000000000000000000000000000000000000000000000000000600052601160045260246000fd5b7f4e487b7100000000000000000000000000000000000000000000000000000000600052602260045260246000fd5b6000601f19601f8301169050919050565b7f45524332303a207472616e7366657220746f20746865207a65726f206164647260008201527f6573730000000000000000000000000000000000000000000000000000000000602082015250565b7f45524332303a20617070726f766520746f20746865207a65726f20616464726560008201527f7373000000000000000000000000000000000000000000000000000000000000602082015250565b7f45524332303a20696e73756666696369656e7420616c6c6f77616e6365000000600082015250565b7f45524332303a207472616e7366657220616d6f756e742065786365656473206260008201527f616c616e63650000000000000000000000000000000000000000000000000000602082015250565b7f4e6f207469656e6573207065726d69736f73207061726120656a65637574617260008201527f20657374612066756e63696f6e2e000000000000000000000000000000000000602082015250565b7f45524332303a207472616e736665722066726f6d20746865207a65726f20616460008201527f6472657373000000000000000000000000000000000000000000000000000000602082015250565b7f45524332303a20617070726f76652066726f6d20746865207a65726f2061646460008201527f7265737300000000000000000000000000000000000000000000000000000000602082015250565b7f45524332303a2064656372656173656420616c6c6f77616e63652062656c6f7760008201527f207a65726f000000000000000000000000000000000000000000000000000000602082015250565b7f45524332303a206d696e7420746f20746865207a65726f206164647265737300600082015250565b6115d88161122b565b81146115e357600080fd5b50565b6115ef81611269565b81146115fa57600080fd5b5056fea26469706673582212209e850c1af561bca914c5ecede96b1e981513cce74eedd8c15f922bb263029abd64736f6c63430008040033",
  "linkReferences": {},
  "deployedLinkReferences": {}
}